:1000000027C0C1C0F1C03FC0FEC03DC03CC03BC026
:100010003AC039C038C037C036C035C004C133C05B
:1000200032C031C030C02FC02EC02DC02CC02BC05C
:100030002AC029C03F065B4F666D7D077F6F400079
:10004000FF0100010000FFFF0000010001FF0000B0
:1000500011241FBECFEFD4E0DEBFCDBF11E0A0E082
:10006000B1E0E4E7F4E002C005900D92A230B107E0
:10007000D9F721E0A2E0B1E001C01D92AA30B20799
:10008000E1F72DD1F5C1BCCF87FF02C0409A01C076
:10009000409886FF02C02C9A01C02C9885FF02C0B0
:1000A0002D9A01C02D9884FF02C02A9A01C02A9877
:1000B00083FF02C02B9A01C02B9882FF02C0299AAD
:1000C00001C0299881FF02C05E9A01C05E9880FF3E
:1000D00002C05D9A08955D980895389A249A259AE9
:1000E000229A239A219A569A559A80E0CDCFE82FEA
:1000F000F0E0EC5CFF4F8491C7CF8FEFC5CF80E07D
:10010000C3CF3A98429A3998419A3B98439A0895B6
:1001100036B126B132FB882780F990E0880F991F0D
:1001200021FB992790F9892B0895CF93DF93EC0158
:100130008881880F880F8C708883EADFE8818E2B96
:100140008883E82F880FFF0BE15CFF4F8491DF91DC
:10015000CF91089586B183FB882780F90895E9E659
:10016000F0E0808184608083E99A0895ECE6F0E015
:100170001082A8E6B0E01C928C9182608C93808102
:100180008760808308951F920F920FB60F921124FB
:100190002F933F934F935F936F937F938F939F938F
:1001A000AF93BF93EF93FF938091020181508093AF
:1001B000020180910201813830F010920201E8982A
:1001C0004498CDDFD3DFFF91EF91BF91AF919F9125
:1001D0008F917F916F915F914F913F912F910F90F0
:1001E0000FBE0F901F9018951F920F920FB60F928F
:1001F00011248F9381E0809303018F910F900FBEA4
:100200000F901F9018951F920F920FB60F92112406
:100210008F93789481E0809309018F910F900FBEA6
:100220000F901F9018951F920F920FB60F921124E6
:100230008F9316BC81E0809306018F910F900FBEC3
:100240000F901F90189515BC85B5806185BD8AE516
:1002500088BD85B5856085BDEEE6F0E0808184606F
:1002600080831092B2000895E9E6F0E08081826018
:100270008083E89A08953C9A4498089553985B9A2D
:10028000089552985A9A089520910001237081E0B0
:1002900028272093000180910701811116C08091C9
:1002A0000101809101016AE0C1D0892F90E0909313
:1002B00005018093040148E0249F9001112402C0AD
:1002C000969587952A95E2F712DF809100018823A1
:1002D00019F02898589A0895289A58980895F894EB
:1002E00014B88FEF85B917B888B91AB88BB9209AA6
:1002F0002898579A5F98F1DE04DFBDDFBFDFC1DFCA
:100300002EDF34DFA0DFF9DE289A5F9A28985F9805
:10031000F6DE8AE090E096D0809301019091010191
:1003200080910101913810F4823018F482E08093BA
:10033000010180910101843618F083E68093010168
:100340001092090110920301D1E013E602E08091BE
:100350000601882319F01092060196DF80910301AF
:10036000882321F110920301809107014B9916C057
:1003700081110DC0E998809168008D7F809368009D
:100380008091010180930201449A6EDF0FC0809139
:1003900068008D7F80936800449A08C0811104C072
:1003A00080910201811102C04498E0DE8091090130
:1003B000882369F210920901D0930601CBDE8111E6
:1003C0000BC0809107018D2780930701882309F4D2
:1003D000BECF8AE08CDEBBCFC091010188E091E006
:1003E000A4DE90910101890F809301019091010198
:1003F00080910101913810F4823010F400930101D2
:1004000080910101843610F0109301018091010167
:100410002C2FCC0F330B90E02817390709F497CF16
:10042000609101018AE090E015D091CF991B79E0AD
:1004300004C0991F961708F0961B881F7A95C9F774
:1004400080950895F999FECF92BD81BDF89A9927BC
:1004500080B50895262FF999FECF1FBA92BD81BDB0
:1004600020BD0FB6F894FA9AF99A0FBE0196089536
:04047000F894FFCF2E
:02047400010283
:00000001FF
