:100000000C9437000C9449000C9449000C944B005C
:100010000C9449000C9449000C9449000C9449003C
:100020000C9449000C9449000C9449000C9449002C
:100030000C9449000C9449000C9449000C9449001C
:100040000C9449000C9449000C9449000C9449000C
:100050000C944900B7823E9E8B9DBD86BF9F00FFDA
:100060000100010000FFFF0000010001FF0011245A
:100070001FBECFE5D4E0DEBFCDBF20E0A0E6B0E0FC
:1000800001C01D92A736B207E1F70E9488000C94C8
:10009000C1010C9400001F920F920FB60F92112411
:1000A0008F9314BC81E0809364008F910F900FBEFA
:1000B0000F901F90189585B5876085BD83E283BD3D
:1000C00089B7806889BF14BC089520916100220F10
:1000D000220F20936100209161002C702093610019
:1000E00046B336B32091610043FB882780F990E046
:1000F000880F991F32FB992790F9892B820F8093E3
:100100006100E0916100F0E0E25AFF4F84910895B0
:10011000CF93DF931F92CDB7DEB7F89419828FEF9C
:100120008BBB8ABB85BB84BB93E097BB88BB81BB81
:1001300012BA88B38C7F816088BB8EE590E0E4E5DD
:10014000F0E0249122BB3196E817F907D1F712BAF3
:1001500028B32C7F226028BBE4E5F0E0249122BB89
:100160003196E817F907D1F7109264000E945B00FE
:100170001982C098789410E06894442444F8512C73
:100180000F2EF3E0CF2EF02D6894772477F8689443
:10019000882484F86894992492F86894AA24A3F88F
:1001A000EE24E394F12CBB24B39480916400882363
:1001B000E1F3109264008091610090E00E9465007C
:1001C000180F14305CF080916200909163000196EA
:1001D000909363008093620010E00CC01D3F54F4C4
:1001E00080916200909163000197909363008093E7
:1001F000620010E08091620090916300893C91055B
:1002000020F05092630040926200809162009091D1
:100210006300419720F01092630010926200B09B3F
:100220001EC040916200509163009A01ADECBCEC9D
:100230000E94B20196958795969587959695879594
:100240009C01220F331F880F991F880F991F880F59
:10025000991F820F931F481B590B49830FC0209190
:10026000620030916300ADECBCEC0E94B201969547
:10027000879596958795969587958983E981F0E08E
:10028000EC5AFF4FE491E2BB88B3837009F4C09A43
:1002900088B38C2588BBB49B03C0B092600085CF27
:1002A00080916000882309F480CF109260008091D3
:1002B000620090916300892B29F4109266001092DD
:1002C000650016C020916200309163008091650046
:1002D0009091660021503109A70102C0440F551FBB
:1002E0002A95E2F78427952790936600809365000E
:1002F0008091650090916600809585BB2091650096
:1003000030916600832F881F8827881F880F36FB4F
:10031000992790F9892B35FF02C09A2D01C090E0F2
:10032000892B34FF02C0992D01C090E0892B33FF47
:1003300002C090E201C090E0892B32FF02C0982DEC
:1003400001C090E0892B31FF02C0972D01C090E0E1
:10035000892B30FF02C090E401C090E0892B80958A
:100360008BBB23CFA29FB001B39FC001A39F700D91
:10037000811D1124911DB29F700D811D1124911DAD
:060380000895F894FFCF80
:00000001FF
