:1000000027C07DC0ACC03FC0BAC03DC03CC03BC0F3
:100010003AC039C038C037C036C035C0E4C033C07C
:1000200032C031C030C02FC02EC02DC02CC02BC05C
:100030002AC029C03F065B4F666D7D077F6F400079
:10004000FF0100010000FFFF0000010001FF0000B0
:1000500011241FBECFEFD4E0DEBFCDBF11E0A0E082
:10006000B1E0E8E8F4E002C005900D92A230B107DB
:10007000D9F721E0A2E0B1E001C01D92AC30B20797
:10008000E1F737D1FFC1BCCF87FF02C0409A01C062
:10009000409886FF02C02C9A01C02C9885FF02C0B0
:1000A0002D9A01C02D9884FF02C02A9A01C02A9877
:1000B00083FF02C02B9A01C02B9882FF02C0299AAD
:1000C00001C0299881FF02C05E9A01C05E9880FF3E
:1000D00002C05D9A08955D980895E82FF0E0EC5C09
:1000E000FF4F8491D1CF81E0CFCF80E0CDCFE9E643
:1000F000F0E08081108284E08083E99A08951F9265
:100100000F920FB60F9211242F933F934F935F934B
:100110006F937F938F939F93AF93BF93EF93FF93CF
:100120008091020181508093020180910201813807
:1001300028F010920201E8984498D9DFFF91EF91DE
:10014000BF91AF919F918F917F916F915F914F91EF
:100150003F912F910F900FBE0F901F9018951F92F7
:100160000F920FB60F9211248F93789481E08093B1
:1001700003018F910F900FBE0F901F9018951F9243
:100180000F920FB60F9211242F933F934F938F939B
:100190009F93789421E020930B0120910801220F76
:1001A000220F20930801209108012C702093080150
:1001B0002091080133B143B142FB442740F9242B7D
:1001C00033FB882780F990E0880F991F282B209314
:1001D00008019F918F914F913F912F910F900FBEEA
:1001E0000F901F9018951F920F920FB60F92112427
:1001F0008F93789416BC81E0809306018F910F90C5
:100200000FBE0F901F90189515BC85B5806185BDF8
:100210008AE588BD85B5856085BDEEE6F0E0808124
:10022000846080831092B2000895E9E6F0E0808156
:10023000108282E08083E89A0895ECE6F0E0808105
:100240001082A8E6B0E08C911C928C9182608C9315
:100250008081876080830895E0910801F0E0E15C8F
:10026000FF4F849108953C9A44980895809100012D
:100270008370809300018091000191E08927809331
:10028000000180910701811128C08091090190919E
:100290000A012AE030E0B901E1D0F62FE0E0F09366
:1002A0000501E09304018091090190910A01B901CF
:1002B000D5D0909305018093040180910401909121
:1002C00005012091000148E0249F9001112402C003
:1002D000969587952A95E2F700DF809100018823A3
:1002E00021F085B185B9589A0895289A8BB18BB9B8
:1002F0000895F89414B88FEF85B917B888B91AB86B
:100300008BB9209A85B185B9579A8BB18BB9EFDE3D
:1003100094DF7ADFE8DE85B185B9589A2FE789EA5C
:1003200093E0215080409040E1F700C00000289AFF
:100330008BB18BB92FE789EA93E021508040904040
:10034000E1F700C00000D1DE10920B011092030112
:100350008ADF7894C3E6D0E011E08091060188231B
:1003600019F01092060182DF80910301882359F170
:10037000109203018FE39CE90197F1F700C00000A0
:100380004B9915C08091070181110FC0E9988091A8
:1003900068008D7F809368008091090190910A0127
:1003A00080930201449A41DF0EC0449A0CC08091B0
:1003B0000701882311F0449806C080910201811141
:1003C00002C044983ADF80910B01882331F21092E9
:1003D0000B018FE39CE90197F1F700C0000033990E
:1003E0000EC080910701812780930701809107014A
:1003F000882311F08AE071DE10930601AECF809160
:10040000080190E029DF181634F4809109019091D9
:100410000A01019607C0882349F080910901909153
:100420000A01019790930A018093090180910901C3
:1004300090910A018138910520F010920A011092E2
:1004400009018091090190910A018436910508F40F
:1004500084CFD0930A01C09309017FCFAA1BBB1B95
:1004600051E107C0AA1FBB1FA617B70710F0A61BB4
:10047000B70B881F991F5A95A9F780959095BC01D5
:08048000CD010895F894FFCFAF
:02048800010071
:00000001FF
